:0200000480007A
:204000001C780020D54302800D4102800D4102800D4102800D4102800D4102800D41028072
:204020000D4102800D4102800D410280034002800D4102800D4102800D4102800D4102800B
:20404000C5400280C5400280C540028001480280C5400280C5400280C5400280C5400280E4
:20406000C5400280C5400280C5400280C5400280C5400280C5400280C5400280C540028008
:20408000C5400280C5400280C5400280C5400280C5400280C5400280C5400280C5400280E8
:2040A000C5400280C5400280C5400280C5400280C5400280C5400280C5400280C5400280C8
:2040C000C5400280C5400280C5400280C5400280C5400280C5400280C5400280C5400280A8
:20480000C540028009A5008060140020000000B000101000727672600202140200000000AB
:2048200060E8A8A8FC00000080050020701B002000000000000000000800000010530080A9
:20484000090000002C590080000000001F0000000C0D03100020100006072A8648CE3D01BE
:204860000100000080050020701B00206816002080050020701B0020A81700208005002075
:20488000D8080020300C00200A0000000B0000000800000011000000FFFFFFFFFFFFFFFF96
:2048A0000000000000000000000000000000000080050020701B0020E81800202C1A002022
:2048C00014490080144900808C490080A0490080000000000000000000000000000000015F
:2048E0005645435F47534C5F48534D0000000001FFFFFFFF30750000FFFFFFFF317500000A
:2049000000010400010500010001030600010001000207008D960080499700808D960080D0
:2049200000000000000000000000000000020200000000000000000000000000010101115F
:2049400011131301010000000000000000000000000000000000000101000000000000001C
:2049600000000000101042101030541143000010010000100100240000000000000000FE99
:20498000FE0000000000000000000000D5A60080E1B3008011990080FFFFFFFF02000000E2
:2049A000E9A600806DC4008005A40080FFFFFFFF0400000009000000020003000000000000
:2049C0000B0000000200030000000000380004F0340004F0200004F0280004F0280004F027
:2049E00000000100070000000100000004000000CD0B000011000000CD0B000001000000E8
:204A00000200000006000000050000000700000004000000000000008D300180419C0080E3
:204A200049970080F9250180D9230180D5AA00805DB7008039D9008080010020800500208F
:204A400000000000000000000000000000000000000000000000000000010203040506073A
:204A600008090A0B0C0D0E0F101112131415161718191A1B1C1D1E1F010153484500800000
:204A800000000000000000B0010253484500800000000000000000B0171507000000000020
:204AA00014120601000000000A08030400000000110E050500000000010000000000000086
:204AC00004010000000000000000000004010000020000000000000004010000C6FFFFFF02
:204AE000FFFFFFFFC6FFFFFFFFFFFFFFC6FFFFFFFFFFFFFFC6FFFFFFFFFFFFFFC65FFAFA64
:204B00007C12002000000200000002001D6D01808D830180A1BD008000000000AD9E00809E
:204B20001027000001000000010000000200000004000000080000001000000020000000FE
:204B400040000000800000001B0000003600000013121413151412090900FFFFFFFFFFFFB1
:204B60001916FFFFFFFF1615FFFFFFFFFFFFFFFFFFFFFFFFFFFFFFFFB42D0020905300808B
:204B80000000000000000000C800000010000000000000000000000000000000000000003D
:204BA000010000002A8648CE3D04030255040655040855040755040A5504032A8648CE3D06
:204BC00002012A8648CE3D030107551D13551D0E551D230001B30080498001801DB300805C
:204BE000D11301801DB30080D113018001B300804980018001B300804980018001B300806B
:204C0000498001800700000002000300000000000100000004000500010000000000000033
:204C2000040005000100000006000000010002000000000007000000090000000B00000046
:204C400008000000050000000C00000006000000020000000A000000010000000300000025
:204C6000040000000000000003000000F974018006030000197C018008060000D93F018079
:204C80000C080000293A01800E0C0000C93A0180100E0000499C018013100000A5E10080D1
:204CA000FFFFFFFF0200000000000000FFFFFFFF0000000001000000FFFFFFFF02000000FB
:204CC00002000000FFFFFFFF0200000002000000FFFFFFFF010000000200000007000000CC
:204CE000020003000000000001000000030005000100000008000000030005000100000094
:204D0000090000000300040000000000000000000400050001000000060000000100020070
:204D2000000000000E00000002000200070000000200020001000000040002000D00000042
:204D4000040002000C00000004000200030000000400020000000000040002000600000026
:204D60000100010005000000010001000E000000020002000100000002000200090000000A
:204D8000030002000A0000000300020008000000020002000B000000030002000D000000D6
:204DA000020002000C00000002000200050000000100010000000000B4555D21040000004D
:204DC0000000000040000000460000000000000007988E1E0200000001000000B00440000B
:204DE0007604010000000000F1EB20FC0300000001000000C404B0045A0102004B65794DED
:204E000043657274696669636174655F4F53534C5F583530395F45434453415F503235362F
:204E20005F43414B65794D43657274696669636174655F4F53534C5F583530395F45434496
:204E400053415F503235365F49410000020000000C0B0709020000000D0C070A090000002B
:204E6000FFFF00030A0000000B0A07040B000000FFFF00060C000000FFFF000502000000E7
:204E8000FFFF000203000000FFFF000006000000FFFF000108000000FFFF000702000000FD
:204EA000FFFF00080E000000020002000400000002000200070000000200020001000000C6
:204EC000040002000D000000040002000C0000000400020008000000040002000900000090
:204EE000030003000A00000003000300000000000400020006000000010001000500000089
:204F00000100010000000000D5C90080680000000C00000001000000FDB9008024000000A2
:204F20000400000001000000FDB90080240000000400000000000000D5C900806800000088
:204F40000C00000000000000D5C90080680000000C00000000000000D5C90080680000002D
:204F60000C000000000005F0FFFF05F001000000000000B0FFFF00B001000000000000508D
:204F8000FFFFFF7F0000000000000030FFFFFF410000000000000010FFFFFF1F00000000FB
:204FA00000000090FFFF11900000000000000480FFFFFF8000000000000004A0FFFFFFA080
:204FC0000000000000000000380000003C00000040000000B4000000B8000000BC000000F5
:204FE0003001000034010000380100007001000074010000780100000C0000001000000097
:2050000014000000180000001C0000002000000024000000280000002C0000003000000080
:20502000340000000000000002000000000000000100000000000000040000000200000033
:2050400000000000000000000300000001000000010000000000000000000000010000004A
:2050600000000000030000000000000004000000000000000500000000000000060000001E
:205080000000000007000000000000000000000001000000020000000300000004000000FF
:2050A0000500000006000000070000000F0000000F0000001000000011000000250000007A
:2050C000130000000900000023000000240000001B0000001C0000001E0000001F000000F9
:2050E00020000000210000000A000000260000002700000000000000020000000000000016
:2051000000010000000000000302000002000000010300000000000004040000010000007A
:2051200000050000000000000106000001000000010700000300000001080000040000004A
:205140000109000005000000010A000006000000010B000007000000010C0000000000000F
:2051600000000000080000000B00000002000000000000000300000009000000000000000E
:20518000F80104000000783FF4011700002700000000000000000000070000000A00000017
:2051A00002000000000000000300000008000000000000005404FC01F801783F58022D173F
:2051C00000272700070000000B000000070000001200000003000000060000000900000044
:2051E00012000000080000002F000000200000000B0000002F0000002000000009000000E3
:20520000060000001D0000000D00000003000000130000000C0000002F00000020000000ED
:20522000150000002F000000200000000E00000000000000000000000100000000000000FB
:2052400002000000000000000300000001000000040000000100000005000000010000003D
:2052600006000000010000000700000001000000080000000100000009000000010000000C
:205280000A000000010000000B000000010000000C000000010000000D00000001000000DC
:2052A00000FF00000000000001FF01000000000004FF0200000100001300030201020000CD
:2052C00014FF040001030000150105020104000016020602010500000A030702010700004D
:2052E0000B040802010700000D0509020106000018060A020109000018070A02010A0000FF
:2053000018080B020108000019090C0201080000F46F0020F66F0020000000000000000016
:20532000E06F0020E26F00200000000000000000E46F0020E66F00200000000000000000A5
:20534000EC6F0020EE6F00200000000000000000F06F0020F26F0020000000000000000055
:2053600080050020C46900200000000000000000506E0020526E002000000000000000007D
:20538000000000000000000000000000000000000000000010004A000000000011004A0058
:2053A0000000000020007A040000000021007A040000000030005E010000000031005E0191
:2053C00000000000400004000000000041000400000000005000040000000000600004008C
:2053E0000000000070006000000000007100600000000000800028000000000081002800BB
:20540000000000009000280000000000910028000100000006010000080601000B080100F0
:205420000E0BFF00120E010015120100181501001B1801001E1B0100211E010022210100EB
:20544000252201002725FF002927FF002A29FF002B2AFF002F2B0100302F020031300100A6
:205460003231FF003332FF003433FF003534FF003635FF003736FF003837FF0039380100E2
:205480003C3901003D3CFF00403D01004340010046430100A5ED008061A7008071B3008054
:2054A000B1B100801DAB008025A70080D1B0008041A90080ADA600802DA2008075A700804D
:2054C000BDA30080ADF3008039B30080B1BC00801DBB008025B9008081C700803DA2008096
:2054E0006DB900801DA5008091C60080D9BC0080ADBB0080E9C300804DA7008049970080F0
:2055000041970080E5A50080E1A4008055AC0080F5A400809DB50080C1A600804197008079
:20552000499700801349C354FFFFFFFF0700000002000000FFFFFFFF000000000000000097
:20554000FFFFFFFF3F00FF010001020905010024100000001349C354FFFFFFFF0500000056
:2055600002000000FFFFFFFF0000000000000000FFFFFFFFBF000002090A0B120E0100240D
:20558000100000009F3F0D9EFFFFFFFF0600000002000000FFFFFFFF000000000000000072
:2055A000FFFFFFFF3F00FF05121314211D01003C10000000010000000101020304050607CA
:2055C000080910111213141516000000000000000000000000000000000000000000000035
:2055E0000000000000000000000000005370657A69616C4569576F6D697361750000000040
:20560000000000000000000000000000010100000000000000000000000000000000000088
:205620000000000000000000000000000000010203040506070809101112131415160102B5
:2056400003040506070809101112131415160000580300000000000000007F0000000000C1
:2056600080050020240200000101010101FF7D0101000000701B002058030000FFFFFFFFDA
:20568000FF010202FF000000D808002044010000FFFF02FFFFFF1003FF000000E818002093
:2056A0004001000002FFFFFFFFFF4004FF0000006816002040010000FF02FFFFFFFF200568
:2056C000FF000000A817002044010000FFFF03FFFFFF1006FF0000002C1A002058030000D3
:2056E000FFFFFFFFFF020207FF000000300C00202000000000000000030000000000000026
:205700000000000000000000080000001900000020000000800300000000000004000000C1
:2057200014000000100000000200000000000000030000001400000010000000020000001A
:20574000000000000800000019000000200000008003000010000000010000001400000060
:205760001000000010000000100000000B0000001B000000000000000000000010000000C3
:205780000B0000008300000000000000001400000000000003000000140000001000000040
:2057A00001000000E1BE0080B9D30080A545018089FB008021B20080D5AF0080BDB4008006
:2057C0001DB50080C9B20080B9AF0080353F01807DE20080C9D20080CDB1008005F400802E
:2057E000FD2B01805132018051D200800DEB0080CDE0008071A60080311E018001C6008006
:2058000075CB0080A1C80080B5B900808DBA0080D9D100800DA10080CDA00080FDA00080C8
:20582000EDA000801DB70080A90A01806DD4008041BE00802D9F00805DA10080A5AD0080F7
:205840001DC5008049C5008075D00080C9A8008019BC0080D9C10080EDF000800DA60080A3
:205860008D9600800001140400000000850114040000000023011404000000000002140478
:2058800000000000850214040000000023021404000000000005140400000000850514046D
:2058A0000000000023051404000000000001140300010000850114030001000023011403B6
:2058C0000001000000021403000100008502140300010000230214030001000000051403B5
:2058E00000010000850514030001000023051403000100000000030000020000001014019B
:205900000003000000101402000400001400830B00050000008082080006000003801908FF
:205920000006000003808208000600005C6E00205E6E002034440280364402800000000082
:2059400000000000F86F0020FA6F0020384402803A4402800000000000000000586E002053
:205960005A6E00203C4402803E4402800000000000000000FC6F0020FE6F0020404402801B
:20598000424402800000000000000000E86F0020EA6F0020444402804644028000000000F9
:2059A000000000001C8400201E840020484402804A4402800000000000000000C4690020FA
:2059C000506E00206C380280F83C02800000000000000000546E0020566E0020F83C028091
:2059E000FA3C028000000000000000000000000000000000000000000000000000000000EF
:205A0000000000003081DE3081B1042000000004FFFFFFFDFFFFFFFFFFFFFFFEFFFFFFFB84
:205A2000FFFFFFFF000000000000000304040000000130440420FFFFFFFC000000040000C9
:205A400000000000000000000003FFFFFFFFFFFFFFFFFFFFFFFC0420DC30061D04874834F8
:205A6000E5A220ABF7212ED6ACF005CD78843090D89CDF6229C4BDDF04410418905F76A5E5
:205A80003755C679FB732B7762251075BA95FC5FEDB60179E730D418A9143C8571FF18252A
:205AA000885D85D2E88688DD21F3258B4AB8E4BA19E45CDDF25357CE95560A3028042066FC
:205AC000E12D94F3D956202845B2392B6BEC594699799C49BD6FA683244C95BE79EEA2044D
:205AE00004EE00BC4F0000003081E0020101302C06072A8648CE3D0101022100FFFFFFFF87
:205B000000000001000000000000000000000000FFFFFFFFFFFFFFFFFFFFFFFF30440420F8
:205B2000FFFFFFFF00000001000000000000000000000000FFFFFFFFFFFFFFFFFFFFFFFC77
:205B400004205AC635D8AA3A93E7B3EBBD55769886BC651D06B0CC53B0F63BCE3C3E27D21D
:205B6000604B0441046B17D1F2E12C4247F8BCE6E563A440F277037D812DEB33A0F4A1396D
:205B800045D898C2964FE342E2FE1A7F9B8EE7EB4A7C0F9E162BCE33576B315ECECBB6407B
:205BA0006837BF51F5022100FFFFFFFF00000000FFFFFFFFFFFFFFFFBCE6FAADA7179E8401
:205BC000F3B9CAC2FC6325510201010052096AD53036A538BF40A39E81F3D7FB7CE3398237
:205BE0009B2FFF87348E4344C4DEE9CB547B9432A6C2233DEE4C950B42FAC34E082EA166F5
:205C000028D924B2765BA2496D8BD12572F8F66486689816D4A45CCC5D65B6926C70485085
:205C2000FDEDB9DA5E154657A78D9D8490D8AB008CBCD30AF7E45805B8B34506D02C1E8FB3
:205C4000CA3F0F02C1AFBD0301138A6B3A9111414F67DCEA97F2CFCEF0B4E67396AC74225D
:205C6000E7AD3585E2F937E81C75DF6E47F11A711D29C5896FB7620EAA18BE1BFC563E4B9B
:205C8000C6D279209ADBC0FE78CD5AF41FDDA8338807C731B11210592780EC5F60517FA9B8
:205CA00019B54A0D2DE57A9F93C99CEFA0E03B4DAE2AF5B0C8EBBB3C83539961172B047EEA
:205CC000BA77D626E169146355210C7D637C777BF26B6FC53001672BFED7AB76CA82C97D2A
:205CE000FA5947F0ADD4A2AF9CA472C0B7FD9326363FF7CC34A5E5F171D8311504C723C342
:205D00001896059A071280E2EB27B27509832C1A1B6E5AA0523BD6B329E32F8453D100ED47
:205D200020FCB15B6ACBBE394A4C58CFD0EFAAFB434D338545F9027F503C9FA851A3408F51
:205D4000929D38F5BCB6DA2110FFF3D2CD0C13EC5F974417C4A77E3D645D197360814FDCFE
:205D6000222A908846EEB814DE5E0BDBE0323A0A4906245CC2D3AC629195E479E7C8376DFF
:205D80008DD54EA96C56F4EA657AAE08BA78252E1CA6B4C6E8DD741F4BBD8B8A703EB56676
:205DA0004803F60E613557B986C11D9EE1F8981169D98E949B1E87E9CE5528DF8CA1890DF0
:205DC000BFE6426841992D0FB054BB16982F8A4291443771CFFBC0B5A5DBB5E95BC2563970
:205DE000F111F159A4823F92D55E1CAB98AA07D8015B8312BE853124C37D0C55745DBE721A
:205E0000FEB1DE80A706DC9B74F19BC1C1699BE48647BEEFC69DC10FCCA10C246F2CE92DEC
:205E2000AA84744ADCA9B05CDA88F97652513E986DC631A8C82703B0C77F59BFF30BE0C6EB
:205E40004791A7D55163CA0667292914850AB72738211B2EFC6D2C4D130D385354730A65CB
:205E6000BB0A6A762EC9C281852C7292A1E8BFA24B661AA8708B4BC2A3516CC719E892D19E
:205E8000240699D685350EF470A06A1016C1A419086C371E4C774827B5BCB034B30C1C392B
:205EA0004AAAD84E4FCA9C5BF36F2E68EE828F746F63A5781478C8840802C78CFAFFBE90E2
:205EC000EB6C50A4F7A3F9BEF27871C6000000002C570080FF000000000000000100000082
:205EE0000000000090570080FF00000001000000010000000000000054570080FF00000010
:205F000004000000010000000000000018570080FF0000001E00000001000000000000006F
:205F20002C570080FF0000001F000000010000000000000054570080FF00000020000000F5
:205F4000010000000000000040570080FF000000210000000100000000000000045700802D
:205F6000FF00000010000000010000000000000004570080FF000000110000000100000025
:205F80000000000068570080FF00000013000000010000000000000054570080FF00000085
:205FA000260000000100000000000000F0560080FF000000260000000100000000000000CE
:205FC00004570080FF0000002700000001000000D15F01804DAB0080D1C50080155A018090
:205FE000E94D0180555D018075820180C11A0180C11A028015CC0080A9CB008065AB0080A1
:206000001516018031C401800DE3008049970080499700804997008049970080499700800E
:2060200049970080297E018049970080110E018049970080499700804997008069BA008015
:2060400049B7018049970080499700804DAB0080D1C50080155A0180E94D0180555D018097
:20606000810B0180C11A01803529018015CC0080A9CB008065AB008015160180DDA8008042
:206080000DE30080499700804997008049970080499700804997008049970080B914018002
:2060A00049970080DD2A01804997008049970080499700803DAC008009A3018049970080E2
:2060C000093C01804DAB0080D1C50080155A018049970080555D018025DC0080C11A01800C
:2060E000E1DB008015CC0080A9CB008065AB008079BD008049CF01800DE3008009000000B7
:206100000100000009000000010000001E000000010000001F000000010000001C00000019
:20612000010000001B00000001000000200000000100000013000000010000000800000005
:20614000010000000A0000000100000011000000010000001D000000010000000000000003
:206160000400000001000000040000001500000001000000160000000100000017000000D2
:206180000100000018000000010000000000000001000000010000000100000002000000E0
:2061A0000100000004000000010000000300000001000000050000000100000006000000C9
:2061C0000100000007000000010000000B0000000100000019000000010000001A00000076
:2061E000010000000C000000010000000D000000010000000E000000010000000F00000065
:20620000010000001000000001000000307500000300000030750000000000003175000079
:20622000000000003075000003000000120000000100000014000000010000000900000085
:206240000000000009000000000000001E000000000000001F000000000000001C000000DC
:20626000000000001B000000000000002000000000000000130000000000000008000000C8
:20628000000000000A0000000000000011000000000000001D0000000202000000000000C2
:2062A00003000000010000000300000015000000000400001600000000040000170000008D
:2062C00000040000180000000004000000000000000000000100000000000000020000009B
:2062E00000010000040000000000000003000000000000000500000000000000060000008B
:206300000000000007000000000000000B0000000000000019000000000000001A00000038
:20632000000000000C000000020200000D000000000400000E000000000400000F0000001B
:20634000000400001000000000000000307500000400000030750000010000003175000034
:20636000010000003075000004000000120000000004000014000000000000000000000049
:2063800049970080499700804997008049970080499700804997008049970080297E018035
:2063A00049970080110E018049970080499700804997008069BA008049B701804997008039
:2063C00001000000D15F01804DAB0080D1C50080155A0180E94D0180555D01802D6C018089
:2063E00075820180C11A0180C11A028015CC0080A9CB008065AB00801516018031C4018065
:206400000DE3008000000000499700804DAB0080D1C50080155A0180E94D0180555D018044
:2064200049970080810B0180C11A01803529018015CC0080A9CB008065AB00801516018023
:20644000DDA800800DE3008000000000093C01804DAB0080D1C50080155A01804997008023
:20646000555D01804997008025DC0080C11A0180E1DB008015CC0080A9CB008065AB00808B
:2064800079BD008049CF01800DE300800000000049970080499700804997008049970080BD
:2064A000499700804997008049970080B914018049970080DD2A01804997008049970080C6
:2064C000499700803DAC008009A301804997008001001000FFFF0100000000000300200033
:2064E000FFFF010300000000040001000100080000000000C70B1000FFFF000000000000AC
:20650000C80B1000FFFF000000000000CA0B0400050109000300000001001000FFFF01009F
:206520000000000005001000150509000000000001001000FFFF01030100000002003000DD
:20654000FFFF000000000000CB0B04001915080003000000CD0B0F002819080003000000F7
:20656000F00B0100FFFF000000000000F10B0100FFFF00000000000001001000FFFF010313
:206580000100000006003000FFFF0100000000000100100038280803030000000500100031
:2065A000483808030300000001001000584808030300000001004200FFFF0200000000004B
:2065C000CD0B1000FFFF030000000000CF0B2000FFFF030000000000881301005958090081
:2065E00000000000891301005A59080000000000010010006A5A090303000000010042001C
:20660000FFFF0300000000000000DC05FFFF020000000000050010007A6A08030300000091
:20662000A10F0800FFFF00000000000001002000FFFF010000000000050020009A7A090042
:20664000000000000E000000FFFF00000102000004000000FFFF010010020000070000000F
:206660000800020401060000010000000B0803040A130000010000000E0B04040A0C000095
:2066800001000000110E05040A0C000001000000141106040A0C000001000000171407043E
:2066A0000A0C00000D000000FFFF0800011700000C000000FFFF0900011700000800000066
:2066C0000B080A040A130000080000000E0B0B040A0C000008000000110E0C040A0C0000E9
:2066E0000800000014110D040A0C00000800000017140E040A0C0000090000001E170F049A
:206700000106000009000000261E1004010600000A000000FFFF11004203000000000000AC
:206720002C29120401040000000000002F2C1304018000000000000029261404140100007A
:2067400006000000080015040106000005000000FFFF1602400200000E000000FFFF0000A2
:206760000102000004000000FFFF01001002000007000000080002040106000001000000E4
:206780000B0803040A130000010000000E0B04040A0C000001000000110E05040A0C00004B
:2067A00001000000141106040A0C000001000000171407040A0C00000D000000FFFF080033
:2067C000011700000C000000FFFF0900011700000800000017140A040A0C00000800000017
:2067E0000E0B0B040A0C0000080000000B080C040A1300000800000014110D040A0C0000BF
:20680000090000001E170E040106000009000000261E0F04010600000A000000FFFF1000A2
:2068200042030000000000002926110414010000000000002C29120401040000000000002A
:206840002F2C13040180000006000000080014040106000005000000FFFF150240020000BC
:20686000010014000400000003003800180001000400C904C8040200C70BE004D00403007F
:20688000C80BF404E4040400CA0B40003C0005000100540044000600050068005800070080
:2068A00001007C006C00080002002805F8040900CB0B30052C050A00CD0B430534050B0009
:2068C000F00B490548050C00F10B510550050D000100900080000E000500A40094000700FF
:2068E0000600D800A8000F00CB0B5C0558050A000100EC00DC00080002009005600509008F
:20690000CB0B980594050A0001000001F00008000200CC059C050900CB0BD405D0050A005C
:206920000100140104010600050028011801070006005C012C010F000100C403B4030600C4
:206940000500D803C803070006000C04DC030F0001009002800206000500A402940207001E
:206960000600D802A8020F0001007001600106000100840174010600050098018801070076
:206980000600CC019C010F000100E805D80510000500FC05EC051100010010060006120066
:2069A0000500240614061100010038062806120001007E063C061300CD0BE001D001140086
:2069C000CF0B0402E4011500881309020802160089138506840617000100C404B4041800B6
:2069E0000100AE046C0419000100CE068C06130000009012B40C1A000000B00CD4061A00B5
:206A00000100D6129412130001001E13DC1213000500341324131B000500481338131B003D
:206A200001002002100206000100340224020600050048023802070006007C024C020F0047
:206A4000A10F54134C131C000100EC02DC02060005000003F00207000600340304030F007D
:206A60000100580338031D0005007C035C031E000600B00380030F000100200410040600D7
:206A800005003404240407000600680438040F0000000000000000000000000000000000CD
:206AA0000000000000000000000000000000000000000000000000000000000000000000D6
:206AC00000000000010000000000000000000000FF000000980F00200000000000000000EF
:206AE000000000000000000000000000000000000000000000000000000000000000000096
:206B000000000000280100004000020002000000000000027F9000000000000000000000F7
:206B20006DA0008000000000C19A0080000000002DA300803DA3008000000000000000003D
:206B40009C0F002000000000580100002000760476040000000000027FD0000000000000AC
:206B6000000000003DA0008000000000F19A0080000000006DA300807DA30080000000007D
:206B800000000000A00F0020000000005801000030005A015A010000000000027FD0000096
:206BA00000000000000000005DA0008000000000CD9A0080000000004DA300805DA3008081
:206BC0000000000000000000A40F002000000000F80100001000460046000000000000024B
:206BE0007FD0000000000000000000008DA00080000000009D9A008000000000EDA20080D3
:206C0000FDA200800000000000000000A80F0020000000005801000090002400240000004D
:206C2000000000027FD0000000000000000000009DA0008000000000859A008000000000A7
:206C4000CDA20080DDA200800000000000000000AC0F0020000000005801000070005C0046
:206C60005C000000000000027FD0000000000000000000007DA0008000000000A99A008007
:206C8000000000000DA300801DA300800000000000000000B00F002000000000580100004C
:206CA0008000240024000000000000027FD0000000000000000000000000000000000000BB
:206CC0000000000000000000000000000000000000000000000000000000000000000000B4
:206CE000080000005000040004000000000000017F000000000000000000000000000000B4
:206D0000000000000000000000000000000000000000000000000000000000000000000073
:206D200000000000080000006000040004000000000000017F00000023000000230000001D
:206D40002E0000002E0000000000000023000000230000002E0000002E0000000000000035
:206D600023000000230000002E0000002E000000000000002E0000002E0000000000000015
:206D80000B000000230000002D00000001000000020000000A000000230000002200000046
:206DA000010000000200000023000000230000002E0000002F000000010000002E000000FE
:206DC0002F0000000100000009000000230000002F0000002F0000000200000023000000D4
:206DE000230000000A0000002F0000000100000023000000230000000A0000002F000000B7
:206E0000010000000F0000002F000000010000000C000000230000002E0000002F000000A6
:206E2000030000000800000004000000280000002F000000050000000800000023000000BC
:206E40002F0000002F000000040000002F0000002F000000080000001A0000001800000038
:206E6000180000002F0000000A0000001B000000230000002E0000002F0000000400000022
:206E800023000000230000001E0000002F000000080000002F0000002F00000008000000F1
:206EA00002000000230000002A0000002E00000005000000030000001C0000002B00000006
:206EC0002F0000000600000003000000230000002B0000002F000000040000001C000000DD
:206EE0002F00000008000000100000001D000000250000002F0000000400000023000000B3
:206F00002300000019000000130000000700000023000000230000002F0000002F00000077
:206F2000040000002F0000002F000000040000000C000000230000002E0000002F0000005F
:206F400007000000080000001E0000002F0000002F0000000400000023000000230000005C
:206F6000250000001F000000040000002F0000002F000000040000000F0000002300000035
:206F80001900000012000000030000002300000023000000090000002F000000090000003C
:206FA0002300000023000000090000002F00000009000000090000002F0000000900000009
:206FC0000500000023000000150000002F00000009000000230000002300000016000000E0
:206FE0000F000000200000002300000023000000160000000F0000002000000016000000C1
:207000000F000000200000000500000023000000140000002E0000000A00000023000000AA
:20702000230000000F0000002F0000002000000023000000230000002F0000002F0000002B
:20704000200000002F0000002F000000200000000500000023000000210000002E0000001B
:207060000B00000022000000220000002F0000002F0000002000000004000000230000001C
:20708000270000002F0000000C0000002F0000002F0000000D0000000200000023000000FE
:2070A0002A0000002E0000000C00000003000000230000002B0000002F0000000D000000DF
:2070C00023000000230000001E00000010000000200000002F0000002F000000200000009E
:2070E0000F00000023000000170000002F0000000E000000170000002300000010000000C0
:207100002F000000200000002300000023000000110000002F000000110000002F0000005A
:207120002F000000200000000C000000230000002E0000002F0000000E0000000F00000057
:20714000080000001A000000170000000F0000000F00000023000000110000002F00000075
:20716000100000002F0000002F000000200000000C000000230000002E0000002F000000F5
:207180000F0000000800000017000000100000002F00000020000000080000002300000037
:2071A0001A0000001100000010000000110000002F000000100000000C0000002300000015
:2071C0002E0000002F0000001000000008000000230000001A0000001100000011000000DB
:2071E00014000000230000001A0000001100000011000000110000002F00000010000000CC
:207200000C000000230000002E0000002F0000001100000008000000230000001000000096
:207220002F000000200000001400000023000000100000002F000000200000001100000058
:207240002F000000110000000500000023000000150000002F00000012000000230000004D
:2072600023000000160000002F000000200000002300000023000000160000002F000000FB
:2072800020000000160000002F0000002000000012000000230000002F0000002F000000D6
:2072A0001300000023000000230000000E0000000C00000014000000230000002300000001
:2072C0000E0000000C000000140000000E0000000C00000014000000060000002300000029
:2072E0002F0000002F000000200000000E000000230000002F0000002F000000150000006C
:207300001900000023000000000000002F00000017000000000000002F00000016000000A6
:207320001F000000200000002C0000002E000000150000001F000000210000002F00000030
:207340002F000000160000002300000023000000290000002F000000190000002F00000002
:207360002F000000200000001100000013000000170000002F0000001C0000001100000027
:20738000230000001D0000000C000000140000001600000023000000050000002F00000020
:2073A0001B000000040000002F0000001A00000011000000230000001D0000000C00000008
:2073C0001400000015000000230000001F000000050000001B0000002300000023000000DC
:2073E0001D0000000C000000140000001D0000000C000000140000000800000023000000E8
:20740000260000000C000000140000000F0000002300000019000000170000001C000000A8
:207420002300000023000000260000000C00000014000000260000000C000000140000007A
:2074400002000000230000002A0000002E0000001900000003000000230000000C00000064
:207460002F000000140000001900000023000000000000002F000000170000000000000047
:207480002F000000160000000C000000190000002300000024000000170000001200000012
:2074A000230000002F0000002F0000001A00000023000000230000000C0000002F000000B0
:2074C000140000000C0000002F0000001400000012000000230000002F0000002F000000B6
:2074E0001B00000023000000230000000C0000002F00000014000000230000002300000096
:207500000C0000002F000000140000000C0000002F000000140000000C00000019000000A8
:20752000230000002F000000170000000C000000230000002E0000002F0000001C0000003A
:2075400023000000230000002F0000002F000000180000002F0000002F00000018000000F9
:2075600001000000230000002F0000002F0000002000000007000000230000002F00000010
:207580002F0000001F000000000000002300000020000000080000001E0000001D00000017
:2075A0000D0000001D00000012000000230000002F0000002F0000001E00000023000000CD
:2075C000230000000D0000002F0000001D00000023000000230000000D0000002F000000AD
:2075E0001D0000000D0000002F0000001D00000001000000230000002F0000002F00000093
:20760000200000000D000000230000002E0000002F0000001F000000230000002300000058
:207620002F0000002F000000200000002F0000002F00000020000000230000002300000008
:207640002F0000002F0000002000000023000000230000002F0000002F00000020000000E8
:2076600023000000230000002F0000002F000000200000002F0000002F00000020000000C8
:2076800051F4A7507E4165531A17A4C33A275E963BAB6BCB1F9D45F1ACFA58AB4BE30393CF
:2076A0002030FA55AD766DF688CC7691F5024C254FE5D7FCC52ACBD726354480B562A38FE2
:2076C000DEB15A4925BA1B6745EA0E985DFEC0E1C32F7502814CF0128D4697A36BD3F9C604
:2076E000038F5FE715929C95BF6D7AEB955259DAD4BE832D587421D349E069298EC9C8440F
:2077000075C2896AF48E797899583E6B27B971DDBEE14FB6F088AD17C920AC667DCE3AB4F0
:2077200063DF4A18E51A31829751336062537F45B16477E0BB6BAE84FE81A01CF9082B9440
:20774000704868588F45FD1994DE6C87527BF8B7AB73D323724B02E2E31F8F576655AB2AB9
:20776000B2EB28072FB5C20386C57B9AD33708A5302887F223BFA5B202036ABAED16825C69
:207780008ACF1C2BA779B492F307F2F04E69E2A165DAF4CD0605BED5D134621FC4A6FE8AB7
:2077A000342E539DA2F355A0058AE132A4F6EB750B83EC394060EFAA5E719F06BD6E105165
:2077C0003E218AF996DD063DDD3E05AE4DE6BD4691548DB571C45D050406D46F605015FF3E
:2077E0001998FB24D6BDE997894043CC67D99E77B0E842BD07898B88E7195B3879C8EEDBA2
:20780000A17C0A477C420FE9F8841EC90000000009808683322BED481E1170AC6C5A724EEC
:20782000FD0EFFFB0F8538563DAED51E362D39270A0FD964685CA6219B5B54D124362E3AC2
:207840000C0A67B19357E70FB4EE96D21B9B919E80C0C54F61DC20A25A774B691C121A16F5
:20786000E293BA0AC0A02AE53C22E043121B171D0E090D0BF28BC7AD2DB6A8B9141EA9C877
:2078800057F11985AF75074CEE99DDBBA37F60FDF701269F5C72F5BC44663BC55BFB7E34FF
:2078A0008B432976CB23C6DCB6EDFC68B8E4F163D731DCCA426385101397224084C6112065
:2078C000854A247DD2BB3DF8AEF93211C729A16D1D9E2F4BDCB230F30D8652EC77C1E3D0EC
:2078E0002BB3166CA970B999119448FA47E96422A8FC8CC4A0F03F1A567D2CD8223390EF98
:2079000087494EC7D938D1C18CCAA2FE98D40B36A6F581CFA57ADE28DAB78E263FADBFA498
:207920002C3A9DE45078920D6A5FCC9B547E4662F68D13C290D8B8E82E39F75E82C3AFF54A
:207940009F5D80BE69D0937C6FD52DA9CF2512B3C8AC993B10187DA7E89C636EDB3BBB7B9D
:20796000CD2678096E5918F4EC9AB701834F9AA8E6956E65AAFFE67E21BCCF08EF15E8E68D
:20798000BAE79BD94A6F36CEEA9F09D429B07CD631A4B2AF2A3F2331C6A5943035A266C065
:2079A000744EBC37FC82CAA6E090D0B033A7D815F104984A41ECDAF77FCD500E1791F62F21
:2079C000764DD68D43EFB04DCCAA4D54E49604DF9ED1B5E34C6A881BC12C1FB84665517F3F
:2079E0009D5EEA04018C355DFA877473FB0B412EB3671D5A92DBD252E91056336DD6471361
:207A00009AD7618C37A10C7A59F8148EEB133C89CEA927EEB761C935E11CE5ED7A47B13CD5
:207A20009CD2DF5955F2733F1814CE7973C737BF53F7CDEA5FFDAA5BDF3D6F147844DB86E6
:207A4000CAAFF381B968C43E3824342CC2A3405F161DC372BCE2250C283C498BFF0D954105
:207A600039A80171080CB3DED8B4E49C6456C1907BCB8461D532B670486C5C74D0B85742FA
:207A80005051F4A7537E4165C31A17A4963A275ECB3BAB6BF11F9D45ABACFA58934BE303CB
:207AA000552030FAF6AD766D9188CC7625F5024CFC4FE5D7D7C52ACB802635448FB562A3DE
:207AC00049DEB15A6725BA1B9845EA0EE15DFEC002C32F7512814CF0A38D4697C66BD3F900
:207AE000E7038F5F9515929CEBBF6D7ADA9552592DD4BE83D35874212949E069448EC9C80B
:207B00006A75C28978F48E796B99583EDD27B971B6BEE14F17F088AD66C920ACB47DCE3AEC
:207B20001863DF4A82E51A31609751334562537FE0B1647784BB6BAE1CFE81A094F9082B3C
:207B400058704868198F45FD8794DE6CB7527BF823AB73D3E2724B0257E31F8F2A6655ABB5
:207B600007B2EB28032FB5C29A86C57BA5D33708F2302887B223BFA5BA02036A5CED168265
:207B80002B8ACF1C92A779B4F0F307F2A14E69E2CD65DAF4D50605BE1FD134628AC4A6FEB3
:207BA0009D342E53A0A2F35532058AE175A4F6EB390B83ECAA4060EF065E719F51BD6E1061
:207BC000F93E218A3D96DD06AEDD3E05464DE6BDB591548D0571C45D6F0406D4FF6050153A
:207BE000241998FB97D6BDE9CC8940437767D99EBDB0E8428807898B38E7195BDB79C8EE9E
:207C000047A17C0AE97C420FC9F8841E000000008309808648322BEDAC1E11704E6C5A72E8
:207C2000FBFD0EFF560F85381E3DAED527362D39640A0FD921685CA6D19B5B543A24362EBE
:207C4000B10C0A670F9357E7D2B4EE969E1B9B914F80C0C5A261DC20695A774B161C121AF1
:207C60000AE293BAE5C0A02A433C22E01D121B170B0E090DADF28BC7B92DB6A8C8141EA973
:207C80008557F1194CAF7507BBEE99DDFDA37F609FF70126BC5C72F5C544663B345BFB7EFB
:207CA000768B4329DCCB23C668B6EDFC63B8E4F1CAD731DC10426385401397222084C61161
:207CC0007D854A24F8D2BB3D11AEF9326DC729A14B1D9E2FF3DCB230EC0D8652D077C1E3E8
:207CE0006C2BB31699A970B9FA1194482247E964C4A8FC8C1AA0F03FD8567D2CEF22339094
:207D0000C787494EC1D938D1FE8CCAA23698D40BCFA6F58128A57ADE26DAB78EA43FADBF94
:207D2000E42C3A9D0D5078929B6A5FCC62547E46C2F68D13E890D8B85E2E39F7F582C3AF46
:207D4000BE9F5D807C69D093A96FD52DB3CF25123BC8AC99A710187D6EE89C637BDB3BBB99
:207D600009CD2678F46E591801EC9AB7A8834F9A65E6956E7EAAFFE60821BCCFE6EF15E889
:207D8000D9BAE79BCE4A6F36D4EA9F09D629B07CAF31A4B2312A3F2330C6A594C035A26661
:207DA00037744EBCA6FC82CAB0E090D01533A7D84AF10498F741ECDA0E7FCD502F1791F61D
:207DC0008D764DD64D43EFB054CCAA4DDFE49604E39ED1B51B4C6A88B8C12C1F7F4665513B
:207DE000049D5EEA5D018C3573FA87742EFB0B415AB3671D5292DBD233E91056136DD6475D
:207E00008C9AD7617A37A10C8E59F81489EB133CEECEA92735B761C9EDE11CE53C7A47B1D1
:207E2000599CD2DF3F55F273791814CEBF73C737EA53F7CD5B5FFDAA14DF3D6F867844DBE2
:207E400081CAAFF33EB968C42C3824345FC2A34072161DC30CBCE2258B283C4941FF0D9501
:207E60007139A801DE080CB39CD8B4E4906456C1617BCB8470D532B674486C5C42D0B857F6
:207E8000A75051F465537E41A4C31A175E963A276BCB3BAB45F11F9D58ABACFA03934BE3C7
:207EA000FA5520306DF6AD76769188CC4C25F502D7FC4FE5CBD7C52A44802635A38FB562DA
:207EC0005A49DEB11B6725BA0E9845EAC0E15DFE7502C32FF012814C97A38D46F9C66BD3FC
:207EE0005FE7038F9C9515927AEBBF6D59DA9552832DD4BE21D35874692949E0C8448EC907
:207F0000896A75C27978F48E3E6B995871DD27B94FB6BEE1AD17F088AC66C9203AB47DCEE8
:207F20004A1863DF3182E51A336097517F45625377E0B164AE84BB6BA01CFE812B94F90838
:207F400068587048FD198F456C8794DEF8B7527BD323AB7302E2724B8F57E31FAB2A6655B1
:207F60002807B2EBC2032FB57B9A86C508A5D33787F23028A5B223BF6ABA0203825CED1661
:207F80001C2B8ACFB492A779F2F0F307E2A14E69F4CD65DABED50605621FD134FE8AC4A6AF
:207FA000539D342E55A0A2F3E132058AEB75A4F6EC390B83EFAA40609F065E711051BD6E5D
:207FC0008AF93E21063D96DD05AEDD3EBD464DE68DB591545D0571C4D46F040615FF605036
:207FE000FB241998E997D6BD43CC89409E7767D942BDB0E88B8807895B38E719EEDB79C89A
:208000000A47A17C0FE97C421EC9F8840000000086830980ED48322B70AC1E11724E6C5AE4
:20802000FFFBFD0E38560F85D51E3DAE3927362DD9640A0FA621685C54D19B5B2E3A2436BA
:2080400067B10C0AE70F935796D2B4EE919E1B9BC54F80C020A261DC4B695A771A161C12ED
:20806000BA0AE2932AE5C0A0E0433C22171D121B0D0B0E09C7ADF28BA8B92DB6A9C8141E6F
:20808000198557F1074CAF75DDBBEE9960FDA37F269FF701F5BC5C723BC544667E345BFBF7
:2080A00029768B43C6DCCB23FC68B6EDF163B8E4DCCAD7318510426322401397112084C65D
:2080C000247D854A3DF8D2BB3211AEF9A16DC7292F4B1D9E30F3DCB252EC0D86E3D077C1E4
:2080E000166C2BB3B999A97048FA1194642247E98CC4A8FC3F1AA0F02CD8567D90EF223390
:208100004EC78749D1C1D938A2FE8CCA0B3698D481CFA6F5DE28A57A8E26DAB7BFA43FAD90
:208120009DE42C3A920D5078CC9B6A5F4662547E13C2F68DB8E890D8F75E2E39AFF582C342
:2081400080BE9F5D937C69D02DA96FD512B3CF25993BC8AC7DA71018636EE89CBB7BDB3B95
:208160007809CD2618F46E59B701EC9A9AA8834F6E65E695E67EAAFFCF0821BCE8E6EF1585
:208180009BD9BAE736CE4A6F09D4EA9F7CD629B0B2AF31A423312A3F9430C6A566C035A25D
:2081A000BC37744ECAA6FC82D0B0E090D81533A7984AF104DAF741EC500E7FCDF62F179119
:2081C000D68D764DB04D43EF4D54CCAA04DFE496B5E39ED1881B4C6A1FB8C12C517F466537
:2081E000EA049D5E355D018C7473FA87412EFB0B1D5AB367D25292DB5633E91047136DD659
:20820000618C9AD70C7A37A1148E59F83C89EB1327EECEA9C935B761E5EDE11CB13C7A47CD
:20822000DF599CD2733F55F2CE79181437BF73C7CDEA53F7AA5B5FFD6F14DF3DDB867844DE
:20824000F381CAAFC43EB968342C3824405FC2A3C372161D250CBCE2498B283C9541FF0DFD
:20826000017139A8B3DE080CE49CD8B4C190645684617BCBB670D5325C74486C5742D0B8F2
:20828000F4A750514165537E17A4C31A275E963AAB6BCB3B9D45F11FFA58ABACE303934BC3
:2082A00030FA5520766DF6ADCC769188024C25F5E5D7FC4F2ACBD7C53544802662A38FB5D6
:2082C000B15A49DEBA1B6725EA0E9845FEC0E15D2F7502C34CF012814697A38DD3F9C66BF8
:2082E0008F5FE703929C95156D7AEBBF5259DA95BE832DD47421D358E0692949C9C8448E03
:20830000C2896A758E7978F4583E6B99B971DD27E14FB6BE88AD17F020AC66C9CE3AB47DE4
:20832000DF4A18631A3182E551336097537F45626477E0B16BAE84BB81A01CFE082B94F934
:208340004868587045FD198FDE6C87947BF8B75273D323AB4B02E2721F8F57E355AB2A66AD
:20836000EB2807B2B5C2032FC57B9A863708A5D32887F230BFA5B223036ABA0216825CED5D
:20838000CF1C2B8A79B492A707F2F0F369E2A14EDAF4CD6505BED50634621FD1A6FE8AC4AB
:2083A0002E539D34F355A0A28AE13205F6EB75A483EC390B60EFAA40719F065E6E1051BD59
:2083C000218AF93EDD063D963E05AEDDE6BD464D548DB591C45D057106D46F045015FF6032
:2083E00098FB2419BDE997D64043CC89D99E7767E842BDB0898B8807195B38E7C8EEDB7996
:208400007C0A47A1420FE97C841EC9F800000000808683092BED48321170AC1E5A724E6CE0
:208420000EFFFBFD8538560FAED51E3D2D3927360FD9640A5CA621685B54D19B362E3A24B6
:208440000A67B10C57E70F93EE96D2B49B919E1BC0C54F80DC20A261774B695A121A161CE9
:2084600093BA0AE2A02AE5C022E0433C1B171D12090D0B0E8BC7ADF2B6A8B92D1EA9C8146B
:20848000F119855775074CAF99DDBBEE7F60FDA301269FF772F5BC5C663BC544FB7E345BF3
:2084A0004329768B23C6DCCBEDFC68B6E4F163B831DCCAD76385104297224013C611208459
:2084C0004A247D85BB3DF8D2F93211AE29A16DC79E2F4B1DB230F3DC8652EC0DC1E3D077E0
:2084E000B3166C2B70B999A99448FA11E9642247FC8CC4A8F03F1AA07D2CD8563390EF228C
:20850000494EC78738D1C1D9CAA2FE8CD40B3698F581CFA67ADE28A5B78E26DAADBFA43F8C
:208520003A9DE42C78920D505FCC9B6A7E4662548D13C2F6D8B8E89039F75E2EC3AFF5823E
:208540005D80BE9FD0937C69D52DA96F2512B3CFAC993BC8187DA7109C636EE83BBB7BDB91
:20856000267809CD5918F46E9AB701EC4F9AA883956E65E6FFE67EAABCCF082115E8E6EF81
:20858000E79BD9BA6F36CE4A9F09D4EAB07CD629A4B2AF313F23312AA59430C6A266C03559
:2085A0004EBC377482CAA6FC90D0B0E0A7D8153304984AF1ECDAF741CD500E7F91F62F1715
:2085C0004DD68D76EFB04D43AA4D54CC9604DFE4D1B5E39E6A881B4C2C1FB8C165517F4633
:2085E0005EEA049D8C355D01877473FA0B412EFB671D5AB3DBD25292105633E9D647136D55
:20860000D7618C9AA10C7A37F8148E59133C89EBA927EECE61C935B71CE5EDE147B13C7AC9
:20862000D2DF599CF2733F5514CE7918C737BF73F7CDEA53FDAA5B5F3D6F14DF44DB8678DA
:20864000AFF381CA68C43EB924342C38A3405FC21DC37216E2250CBC3C498B280D9541FFF9
:20866000A80171390CB3DE08B4E49CD856C19064CB84617B32B670D56C5C7448B85742D0EE
:20868000C66363A5F87C7C84EE777799F67B7B8DFFF2F20DD66B6BBDDE6F6FB191C5C55412
:2086A0006030305002010103CE6767A9562B2B7DE7FEFE19B5D7D7624DABABE6EC76769A79
:2086C0008FCACA451F82829D89C9C940FA7D7D87EFFAFA15B25959EB8E4747C9FBF0F00B8A
:2086E00041ADADECB3D4D4675FA2A2FD45AFAFEA239C9CBF53A4A4F7E47272969BC0C05B84
:2087000075B7B7C2E1FDFD1C3D9393AE4C26266A6C36365A7E3F3F41F5F7F70283CCCC4FEC
:208720006834345C51A5A5F4D1E5E534F9F1F108E2717193ABD8D873623131532A15153FFD
:208740000804040C95C7C752462323659DC3C35E30181828379696A10A05050F2F9A9AB54F
:208760000E070709241212361B80809BDFE2E23DCDEBEB264E2727697FB2B2CDEA75759FCF
:208780001209091B1D83839E582C2C74341A1A2E361B1B2DDC6E6EB2B45A5AEE5BA0A0FB30
:2087A000A45252F6763B3B4DB7D6D6617DB3B3CE5229297BDDE3E33E5E2F2F7113848497EE
:2087C000A65353F5B9D1D16800000000C1EDED2C40202060E3FCFC1F79B1B1C8B65B5BEDF8
:2087E000D46A6ABE8DCBCB4667BEBED97239394B944A4ADE984C4CD4B05858E885CFCF4A00
:20880000BBD0D06BC5EFEF2A4FAAAAE5EDFBFB16864343C59A4D4DD7663333551185859498
:208820008A4545CFE9F9F91004020206FE7F7F81A05050F0783C3C44259F9FBA4BA8A8E3E0
:20884000A25151F35DA3A3FE804040C0058F8F8A3F9292AD219D9DBC70383848F1F5F504A5
:2088600063BCBCDF77B6B6C1AFDADA754221216320101030E5FFFF1AFDF3F30EBFD2D26DAD
:2088800081CDCD4C180C0C1426131335C3ECEC2FBE5F5FE1359797A2884444CC2E1717390F
:2088A00093C4C45755A7A7F2FC7E7E827A3D3D47C86464ACBA5D5DE73219192BE673739575
:2088C000C06060A0198181989E4F4FD1A3DCDC7F44222266542A2A7E3B9090AB0B88888326
:2088E0008C4646CAC7EEEE296BB8B8D32814143CA7DEDE79BC5E5EE2160B0B1DADDBDB7638
:20890000DBE0E03B64323256743A3A4E140A0A1E924949DB0C06060A4824246CB85C5CE476
:208920009FC2C25DBDD3D36E43ACACEFC46262A6399191A8319595A4D3E4E437F279798BEB
:20894000D5E7E7328BC8C8436E373759DA6D6DB7018D8D8CB1D5D5649C4E4ED249A9A9E059
:20896000D86C6CB4AC5656FAF3F4F407CFEAEA25CA6565AFF47A7A8E47AEAEE9100808181A
:208980006FBABAD5F07878884A25256F5C2E2E72381C1C2457A6A6F173B4B4C797C6C6514C
:2089A000CBE8E823A1DDDD7CE874749C3E1F1F21964B4BDD61BDBDDC0D8B8B860F8A8A8508
:2089C000E07070907C3E3E4271B5B5C4CC6666AA904848D806030305F7F6F6011C0E0E12F5
:2089E000C26161A36A35355FAE5757F969B9B9D01786869199C1C1583A1D1D27279E9EB93F
:208A0000D9E1E138EBF8F8132B9898B322111133D26969BBA9D9D970078E8E89339494A738
:208A20002D9B9BB63C1E1E2215878792C9E9E92087CECE49AA5555FF50282878A5DFDF7A5F
:208A4000038C8C8F59A1A1F8098989801A0D0D1765BFBFDAD7E6E631844242C6D06868B83C
:208A6000824141C3299999B05A2D2D771E0F0F117BB0B0CBA85454FC6DBBBBD62C16163A6F
:208A8000A5C6636384F87C7C99EE77778DF67B7B0DFFF2F2BDD66B6BB1DE6F6F5491C5C50E
:208AA0005060303003020101A9CE67677D562B2B19E7FEFE62B5D7D7E64DABAB9AEC767675
:208AC000458FCACA9D1F82824089C9C987FA7D7D15EFFAFAEBB25959C98E47470BFBF0F086
:208AE000EC41ADAD67B3D4D4FD5FA2A2EA45AFAFBF239C9CF753A4A496E472725B9BC0C080
:208B0000C275B7B71CE1FDFDAE3D93936A4C26265A6C3636417E3F3F02F5F7F74F83CCCCE8
:208B20005C683434F451A5A534D1E5E508F9F1F193E2717173ABD8D8536231313F2A1515F9
:208B40000C0804045295C7C7654623235E9DC3C328301818A13796960F0A0505B52F9A9A4B
:208B6000090E0707362412129B1B80803DDFE2E226CDEBEB694E2727CD7FB2B29FEA7575CB
:208B80001B1209099E1D838374582C2C2E341A1A2D361B1BB2DC6E6EEEB45A5AFB5BA0A02C
:208BA000F6A452524D763B3B61B7D6D6CE7DB3B37B5229293EDDE3E3715E2F2F97138484EA
:208BC000F5A6535368B9D1D1000000002CC1EDED604020201FE3FCFCC879B1B1EDB65B5BF4
:208BE000BED46A6A468DCBCBD967BEBE4B723939DE944A4AD4984C4CE8B058584A85CFCFFC
:208C00006BBBD0D02AC5EFEFE54FAAAA16EDFBFBC5864343D79A4D4D556633339411858594
:208C2000CF8A454510E9F9F90604020281FE7F7FF0A0505044783C3CBA259F9FE34BA8A8DC
:208C4000F3A25151FE5DA3A3C08040408A058F8FAD3F9292BC219D9D4870383804F1F5F5A1
:208C6000DF63BCBCC177B6B675AFDADA63422121302010101AE5FFFF0EFDF3F36DBFD2D2A9
:208C80004C81CDCD14180C0C352613132FC3ECECE1BE5F5FA2359797CC884444392E17170B
:208CA0005793C4C4F255A7A782FC7E7E477A3D3DACC86464E7BA5D5D2B32191995E6737371
:208CC000A0C0606098198181D19E4F4F7FA3DCDC664422227E542A2AAB3B9090830B888822
:208CE000CA8C464629C7EEEED36BB8B83C28141479A7DEDEE2BC5E5E1D160B0B76ADDBDB34
:208D00003BDBE0E0566432324E743A3A1E140A0ADB9249490A0C06066C482424E4B85C5C72
:208D20005D9FC2C26EBDD3D3EF43ACACA6C46262A8399191A431959537D3E4E48BF27979E7
:208D400032D5E7E7438BC8C8596E3737B7DA6D6D8C018D8D64B1D5D5D29C4E4EE049A9A955
:208D6000B4D86C6CFAAC565607F3F4F425CFEAEAAFCA65658EF47A7AE947AEAE1810080816
:208D8000D56FBABA88F078786F4A2525725C2E2E24381C1CF157A6A6C773B4B45197C6C648
:208DA00023CBE8E87CA1DDDD9CE87474213E1F1FDD964B4BDC61BDBD860D8B8B850F8A8A04
:208DC00090E07070427C3E3EC471B5B5AACC6666D89048480506030301F7F6F6121C0E0EF1
:208DE000A3C261615F6A3535F9AE5757D069B9B9911786865899C1C1273A1D1DB9279E9E3B
:208E000038D9E1E113EBF8F8B32B989833221111BBD2696970A9D9D989078E8EA733949434
:208E2000B62D9B9B223C1E1E9215878720C9E9E94987CECEFFAA5555785028287AA5DFDF5B
:208E40008F038C8CF859A1A180098989171A0D0DDA65BFBF31D7E6E6C6844242B8D0686838
:208E6000C3824141B0299999775A2D2D111E0F0FCB7BB0B0FCA85454D66DBBBB3A2C16166B
:208E800063A5C6637C84F87C7799EE777B8DF67BF20DFFF26BBDD66B6FB1DE6FC55491C50A
:208EA000305060300103020167A9CE672B7D562BFE19E7FED762B5D7ABE64DAB769AEC7671
:208EC000CA458FCA829D1F82C94089C97D87FA7DFA15EFFA59EBB25947C98E47F00BFBF082
:208EE000ADEC41ADD467B3D4A2FD5FA2AFEA45AF9CBF239CA4F753A47296E472C05B9BC07C
:208F0000B7C275B7FD1CE1FD93AE3D93266A4C26365A6C363F417E3FF702F5F7CC4F83CCE4
:208F2000345C6834A5F451A5E534D1E5F108F9F17193E271D873ABD831536231153F2A15F5
:208F4000040C0804C75295C723654623C35E9DC31828301896A13796050F0A059AB52F9A47
:208F600007090E0712362412809B1B80E23DDFE2EB26CDEB27694E27B2CD7FB2759FEA75C7
:208F8000091B1209839E1D832C74582C1A2E341A1B2D361B6EB2DC6E5AEEB45AA0FB5BA028
:208FA00052F6A4523B4D763BD661B7D6B3CE7DB3297B5229E33EDDE32F715E2F84971384E6
:208FC00053F5A653D168B9D100000000ED2CC1ED20604020FC1FE3FCB1C879B15BEDB65BF0
:208FE0006ABED46ACB468DCBBED967BE394B72394ADE944A4CD4984C58E8B058CF4A85CFF8
:20900000D06BBBD0EF2AC5EFAAE54FAAFB16EDFB43C586434DD79A4D335566338594118590
:2090200045CF8A45F910E9F9020604027F81FE7F50F0A0503C44783C9FBA259FA8E34BA8D8
:2090400051F3A251A3FE5DA340C080408F8A058F92AD3F929DBC219D38487038F504F1F59D
:20906000BCDF63BCB6C177B6DA75AFDA2163422110302010FF1AE5FFF30EFDF3D26DBFD2A5
:20908000CD4C81CD0C14180C13352613EC2FC3EC5FE1BE5F97A2359744CC884417392E1707
:2090A000C45793C4A7F255A77E82FC7E3D477A3D64ACC8645DE7BA5D192B32197395E6736D
:2090C00060A0C060819819814FD19E4FDC7FA3DC226644222A7E542A90AB3B9088830B881E
:2090E00046CA8C46EE29C7EEB8D36BB8143C2814DE79A7DE5EE2BC5E0B1D160BDB76ADDB30
:20910000E03BDBE0325664323A4E743A0A1E140A49DB9249060A0C06246C48245CE4B85C6E
:20912000C25D9FC2D36EBDD3ACEF43AC62A6C46291A8399195A43195E437D3E4798BF279E3
:20914000E732D5E7C8438BC837596E376DB7DA6D8D8C018DD564B1D54ED29C4EA9E049A951
:209160006CB4D86C56FAAC56F407F3F4EA25CFEA65AFCA657A8EF47AAEE947AE0818100812
:20918000BAD56FBA7888F078256F4A252E725C2E1C24381CA6F157A6B4C773B4C65197C644
:2091A000E823CBE8DD7CA1DD749CE8741F213E1F4BDD964BBDDC61BD8B860D8B8A850F8A00
:2091C0007090E0703E427C3EB5C471B566AACC6648D8904803050603F601F7F60E121C0EED
:2091E00061A3C261355F6A3557F9AE57B9D069B986911786C15899C11D273A1D9EB9279E37
:20920000E138D9E1F813EBF898B32B981133221169BBD269D970A9D98E89078E94A7339430
:209220009BB62D9B1E223C1E87921587E920C9E9CE4987CE55FFAA5528785028DF7AA5DF57
:209240008C8F038CA1F859A1898009890D171A0DBFDA65BFE631D7E642C6844268B8D06834
:2092600041C3824199B029992D775A2D0F111E0FB0CB7BB054FCA854BBD66DBB163A2C1667
:209280006363A5C67C7C84F8777799EE7B7B8DF6F2F20DFF6B6BBDD66F6FB1DEC5C5549106
:2092A00030305060010103026767A9CE2B2B7D56FEFE19E7D7D762B5ABABE64D76769AEC6D
:2092C000CACA458F82829D1FC9C940897D7D87FAFAFA15EF5959EBB24747C98EF0F00BFB7E
:2092E000ADADEC41D4D467B3A2A2FD5FAFAFEA459C9CBF23A4A4F753727296E4C0C05B9B78
:20930000B7B7C275FDFD1CE19393AE3D26266A4C36365A6C3F3F417EF7F702F5CCCC4F83E0
:2093200034345C68A5A5F451E5E534D1F1F108F9717193E2D8D873AB3131536215153F2AF1
:2093400004040C08C7C7529523236546C3C35E9D181828309696A13705050F0A9A9AB52F43
:209360000707090E1212362480809B1BE2E23DDFEBEB26CD2727694EB2B2CD7F75759FEAC3
:2093800009091B1283839E1D2C2C74581A1A2E341B1B2D366E6EB2DC5A5AEEB4A0A0FB5B24
:2093A0005252F6A43B3B4D76D6D661B7B3B3CE7D29297B52E3E33EDD2F2F715E84849713E2
:2093C0005353F5A6D1D168B900000000EDED2CC120206040FCFC1FE3B1B1C8795B5BEDB6EC
:2093E0006A6ABED4CBCB468DBEBED96739394B724A4ADE944C4CD4985858E8B0CFCF4A85F4
:20940000D0D06BBBEFEF2AC5AAAAE54FFBFB16ED4343C5864D4DD79A33335566858594118C
:209420004545CF8AF9F910E9020206047F7F81FE5050F0A03C3C44789F9FBA25A8A8E34BD4
:209440005151F3A2A3A3FE5D4040C0808F8F8A059292AD3F9D9DBC2138384870F5F504F199
:20946000BCBCDF63B6B6C177DADA75AF2121634210103020FFFF1AE5F3F30EFDD2D26DBFA1
:20948000CDCD4C810C0C141813133526ECEC2FC35F5FE1BE9797A2354444CC881717392E03
:2094A000C4C45793A7A7F2557E7E82FC3D3D477A6464ACC85D5DE7BA19192B32737395E669
:2094C0006060A0C0818198194F4FD19EDCDC7FA3222266442A2A7E549090AB3B8888830B1A
:2094E0004646CA8CEEEE29C7B8B8D36B14143C28DEDE79A75E5EE2BC0B0B1D16DBDB76AD2C
:20950000E0E03BDB323256643A3A4E740A0A1E144949DB9206060A0C24246C485C5CE4B86A
:20952000C2C25D9FD3D36EBDACACEF436262A6C49191A8399595A431E4E437D379798BF2DF
:20954000E7E732D5C8C8438B3737596E6D6DB7DA8D8D8C01D5D564B14E4ED29CA9A9E0494D
:209560006C6CB4D85656FAACF4F407F3EAEA25CF6565AFCA7A7A8EF4AEAEE947080818100E
:20958000BABAD56F787888F025256F4A2E2E725C1C1C2438A6A6F157B4B4C773C6C6519740
:2095A000E8E823CBDDDD7CA174749CE81F1F213E4B4BDD96BDBDDC618B8B860D8A8A850FFC
:2095C000707090E03E3E427CB5B5C4716666AACC4848D89003030506F6F601F70E0E121CE9
:2095E0006161A3C235355F6A5757F9AEB9B9D06986869117C1C158991D1D273A9E9EB92733
:20960000E1E138D9F8F813EB9898B32B111133226969BBD2D9D970A98E8E89079494A7332C
:209620009B9BB62D1E1E223C87879215E9E920C9CECE49875555FFAA28287850DFDF7AA553
:209640008C8C8F03A1A1F859898980090D0D171ABFBFDA65E6E631D74242C6846868B8D030
:209660004141C3829999B0292D2D775A0F0F111EB0B0CB7B5454FCA8BBBBD66D16163A2C63
:209680000100010D0A004000010000007047000000200390704700000020286070470000F0
:2096A00000280446704700000028054670470000006A0328704700000078002870470000B4
:2096C000009438467047000000944046704700000094584670470000039800947047000021
:2096E000039881427047000004980228704700000598406A704700000C4606467047000085
:20970000089800787047000011461A46704700001B6A042B70470000284621467047000015
:209720003A46334670470000424633467047000040780228704700004A4633467047000068
:209740004FF00000704700004FF00100704700004FF00300704700005A4633467047000053
:20976000801E80B270470000891E89B270470000C168002970470000E06000997047000030
:2097800040F2E45121447047097880EA01607047059890F8340070470DF1120000907047DC
:2097A000C0B21146085C7047009402983946704700940298414670470025012400F050B9B2
:2097C00000B50420A04700BD10B500F0C5FE10BD4FF6FF71884270470D46064614467047E1
:2097E0004FF06C40408A70474FF07F018180704741F44041818070470094404641467047C0
:209800000094404659467047CDF800802846704701980094014670470094484649467047DB
:2098200005B90026304670470A2085F8310A7047002085F8410A704700208DF80000704783
:2098400000945846594670470699059A58467047002818BF01207047606A00680028704705
:2098600094F8410A002870474068407C0028704700B5A047002800BD00B5A047012000BDF4
:2098800000B5A047024600BD00B5A047044600BD00B5A047054600BD00B5A047284600BD19
:2098A00000B5A847002800BD00B5A847206800BD00B500F04DF9056800BD000000B500F07C
:2098C00047F9002800BD000000B500F041F9006800BD000000B500F041F9006800BD00005B
:2098E00000B500211420A84700BD000000B500211420A04700BD000000B505211420A0470E
:2099000000BD00000023009301930293704700000A780270497841707047000005460A463C
:209920000124002370470000002818BF704705267047000000B5A0470028044600BD0000C5
:2099400000B500216D20A84700BD000000B500216D20A04700BD000000B500216E20A8479E
:2099600000BD000000B500216E20A04700BD000000B500217220A84700BD000000B5002138
:209980007220A04700BD000010B5C4680069A04710BD000010B544680069A04710BD0000F5
:2099A00010B584680069A04710BD000010B504680069A04710BD0000006C406800790328D3
:2099C000704700002068006CC0F30320704700004846514632462346704700000068002109
:2099E00080F82C1070470000029B10464354491C7047000080B25FEA112189B270470000B7
:209A0000096891F8371000297047000040F2EC00CFF60600704700004FF60060CFF6FF70AC
:209A2000704700004FF60061CFF6FF717047000001484168052970475810002001480178BC
:209A400000297047B369002001498968002970475810002010200490181D197800297047DD
:209A6000014A1278012A7047B1690020014CFD2305AA7047F9BA00802346014C7047C0467C
:209A8000D1BF008010B500F071F90C20A04710BD1CAB1DAA40F6CD310420704710B500F065
:209AA00065F90B20A04710BD10B500F05FF90A20A04710BD1C2200FB023000683060704764
:209AC00010B500F04DF90120A04710BD10B500F047F90020A04710BD2B46014D7047C04671
:209AE000D1BF0080049009A8059007A80690704710B500F035F90220A04710BD014C2068F2
:209B0000006B7047C413002001480068006B7047C4130020D0F1010038BF00200871704759
:209B2000014C2478012C7047B1690020014934207047C0465C510080014944207047C0462B
:209B4000906A0080014909887047C04684960080014800687047C04600100020014800680A
:209B60007047C04604100020014800887047C04658100020014800887047C046AA6900201D
:209B8000014801887047C0465810002001490C207047C046EC100020014909687047C046E7
:209BA00000100020014D3B467047C046D1BF008000B500686169A269A84700BD014D2D7848
:209BC000012D7047B169002000B5014CA04700BD7502028000B5014CA04700BD8DD2008042
:209BE00000B5014CA04700BD55A9008000B5014CA04700BD19BE008000B5014CA04700BD9E
:209C000091B2008000B5014DA84700BD19BE008000B5014DA84700BD8DD2008003460A4654
:209C2000106CC16828297047014C4FF6FF717047FDE60080009501952B462A462146704731
:209C400010B5014CA04710BDF5EE008010B5014CA04710BD91B2008010B5014CA04710BD8C
:209C600019BE008010B5014CA04710BDD937028010B5014CA04710BD4559018010B5014C3E
:209C8000A04710BD6DE5008010B5014CA04710BDCDA9008010B5014CA04710BD9DD10080CE
:209CA00010B5014CA04710BD21BA008010B5014CA04710BD7DE8018010B5014CA04710BD11
:209CC000ED9E018010B5014CA04710BD5D4F018010B5014CA04710BD1D28018010B5014CE7
:209CE000A04710BDA147018010B5014CA04710BD8D9600800B46044618681546C0B270473F
:209D0000181D1B78A268002BE168704794F8280110F00F01042970470020606284F8370008
:209D2000206B70470096606849465A463B4670470844014901447047941D002001980024FC
:209D40000844716A0860704700B5FFF73BFEB4F8401000BD096802464058401C505070471C
:209D6000014C0A46014670470DE60080014C0A4601467047419700804846014C102270471E
:209D80007502028080F8371003214162012170475FF001080027164600F00CB800B5002CFB
:209DA00008BF00BDA04700BD0148006800287047E40F00200148007801287047B0690020FE
:209DC0000148007801287047B5690020014E3068002870470010002001488068002870479E
:209DE00058100020C068014C7047C04635E200802846014C69467047314D0180022085F853
:209E00003B0A012085F83D0A70470000002180F83B1A90F83D1A0129704700003E2040F223
:209E20003801CFF6060108607047000000B5A268006851F83210A84700BD000000B5FFF7F5
:209E4000EBFD064006F5007600BD00000020506282F837002068FFF78BBC0000C1F3074261
:209E60003146895C80EA014070470000C1F307223146895C80EA01207047000070B501F093
:209E8000C1F9856A2068A84770BD000070B501F0B9F9056A2068A84770BD0000D0F10100D8
:209EA00038BF002081F854007047000010B5FFF74FFEC469FFF772FF10BD000010B501F0E8
:209EC000BDF9846B0868A04710BD000000B5FFF795FF002085F83A0A00BD00000E994BF6F4
:209EE000EF62CDF6AD6291427047000000B5024EB047002800BDC046C9BD0080024901EB91
:209F0000800108687047C0468C5000809DF801109DF8002051EA02212180704700B5024C23
:209F2000A0475046414600BD91B2008002494FF0200008607047C046E00F00200249142040
:209F400005FB00107047C0465056008005460498102808BF704742F20805704702494FF0EF
:209F6000000008707047C046AF69002002494FF0000008707047C046B069002002494FF0F2
:209F8000000008707047C046B169002002494FF0000008707047C046BC690020024A4FF0C3
:209FA000000181547047C046880F002047F2305290422CBF801AFF200860704782680021FC
:209FC0000AB9C06800B1012108467047024CFF23247814F0010F7047AF69002040F2340049
:209FE000CFF60600006810F00200704740F21000CFF60600006810F002007047024B0024D6
:20A000001B780125012B7047B169002000B5024D0122A84700BDC04645AA0080024C0125AE
:20A0200024780026012C7047B069002000B5024C0221A04700BDC0466DC9008010B5024CA8
:20A040000220A04710BDC046F9640180024901240978002501297047B069002010B5024C03
:20A060000020A04710BDC046F964018010B5024C0120A04710BDC046F964018010B5024C49
:20A080000A20A04710BDC046D9B9008010B5024C0B20A04710BDC046D9B9008010B5024CAD
:20A0A0000C20A04710BDC046D9B9008000B5024C0546A04700BDC04619BE008081686FF011
:20A0C0000F020978002511440729704702494FF0040081F844007047C413002002480068E2
:20A0E000B0F1FF3F7047C0469448008002494FF0000081F844007047C413002002494FF0E9
:20A10000010081F844007047C413002002494FF0030081F844007047C413002000B5024CD8
:20A120002846A04700BDC0468161018000B5024D4246A84700BDC0467DA4008010B5FFF70A
:20A1400059FC014CA04710BDEDE1008010B5FFF751FC014CA04710BD7DD9008010B5FFF7C1
:20A1600003FD014CA04710BD8D9600800248806F002818BF01207047B414002000680022B9
:20A18000884238BF42F202021046704700B5B070014DA84700BDC046599C008002490978A3
:20A1A00011F0010F7047C046AF69002017460E465FEA03100F305FEA1014704700B5024C26
:20A1C0000546A047284600BD91B2008000B5024850F82140A04700BDA45700800020C1F8BF
:20A1E000F809C1F8E8095FF4803070470248007810F0010F7047C046AF69002010B5024626
:20A2000008461146D2685468A04710BD5FF48030C1F8F809C1F8E80900207047024C002241
:20A220005FF496717047C0467DAB008002480068203818BF01207047DC0F002002480068E9
:20A24000203818BF01207047E00F002056F8211080EA01009968C1F30741704700B5A047AE
:20A26000014C072100BDC0464D48018000B5A047014CA04700BDC0465198008000B5A847F0
:20A28000014DA84700BDC04651980080002218B10068884228BF01221046704700B5024D1D
:20A2A000A847012800BDC04695AB008000B5024DA847002800BDC04601B9008000B5024DE7
:20A2C000A847002800BDC0465198008010B50146014C0C20A04710BDD109018010B501469B
:20A2E000014C0C20A04710BDC5E2008010B50146014C0B20A04710BDD109018010B501466B
:20A30000014C0B20A04710BDC5E2008010B50146014C0A20A04710BDD109018010B501464C
:20A32000014C0A20A04710BDC5E2008010B50146014C0120A04710BD958A018010B50146F1
:20A34000014C0120A04710BDFD91018010B50146014C0020A04710BD958A018010B50146F3
:20A36000014C0020A04710BDFD91018010B50146014C0220A04710BD958A018010B50146D2
:20A38000014C0220A04710BDFD91018000B5024CA047002800BDC0465198008000B5024C4A
:20A3A000A047022000BDC04619BE008002480068006890F82C0070470410002002480078FF
:20A3C000FF3818BF01207047A86900206171A0715FEA202050F08000E071704700B501B1CB
:20A3E00008B9022600BD0068FFF79EFA00BD000010B44FF00C0401FB04000260436010BC20
:20A40000704700000A7802704A7842708A788270C978C17070470000012212FA01F1084097
:20A42000D0F1010038BF00207047000000B5C1F3072E114611F80E1080EA012000BD000028
:20A4400000B5C1F3074E114611F80E1080EA014000BD000000B5A847002805464FF4005AA4
:20A460004FF0020700BD0000082801D0092801D1012000E0002000287047000004E051F8A6
:20A48000043B521E40F8043B002AF8D1704700000498019950F82A0041F82A000AF1010ADB
:20A4A00070470000054695F82801DDF8208010F00F0001287047000030B5FFF77FFE024CDA
:20A4C000A047FFF793FB30BD25AC008030B5FFF775FE024CA047FFF789FB30BDFDAC0080C0
:20A4E000034890F8470010F0600018BF01207047C413002003480068C069002818BF012040
:20A500007047C046C413002031B141F24872C6F2CB020020C1E9002000207047034890F89F
:20A5200045000128CCBF012000207047C413002010B502460B46024C00211520A04710BD7D
:20A54000D1BF008010B502460B46024C00215C20A04710BDD1BF008000B508B9002000BD8B
:20A56000014CA04700BDC0466DA5008010B508B9002010BD014CA04710BDC046F1AF0080B8
:20A5800010B508B9002010BD014CA04710BDC0460DB0008010B513464C680A6A2146014C0A
:20A5A000A04710BD7D8F018010B5034901EB40118C69A04710BDC046184A008000281CBF78
:20A5C0001028202800D001E000207047F7207047034D342400FB0454246A042C7047C0462F
:20A5E0005C51008010B5FFF78FFA024CC0F34020A04710BD5198008000B5B047DFF8088061
:20A6000021460646C04700BD159B0080034890F8461041F0010180F846107047C4130020BB
:20A6200000B500F001F9024B01FB023100BDC046D05F0080034A342100FB01240546206AF6
:20A64000002870475C51008000B5034C384631464A46A04700BDC04665290280BD4204BFE9
:20A6600006EB8500704701487047C046EC0F002010B50248024C8168A04710BDC41300209B
:20A68000BDDD008000B5A047002808BF00BD014CA04700BD9DDB008010B54DF8043D024CD6
:20A6A0000023A04701B010BD310D0180034890F84400D0F1010038BF00207047C4130020B5
:20A6C000034890F84800D0F1010038BF00207047C413002030B514462288024DA847208011
:20A6E00030BDC04641B1008030B514462268024DA847206030BDC0468DAA008030464146C7
:20A70000024D0DF1060301AA7047C046D12E018000B501202070DFF80880C047284600BD04
:20A7200019BE00800348B0F84200002818BF01207047C046C41300200348099900EBC10020
:20A740008088801E80B27047606800800348007810F0400018BF01207047C046BA69002027
:20A760000348007810F0100018BF01207047C046BA6900200348007810F0060018BF01204D
:20A780007047C046BA6900204FF0F00045F25451CFF6C0710860BFF34F8F704710B5002321
:20A7A0004DF8043D014CA04701B010BD058D01804FF0FA0045F25451CFF6C0710860BFF329
:20A7C0004F8F70470348314600902046CDF804A07047C04651ED00809DF80000024A9021B6
:20A7E00000FB01207047C0466426002000B5A047024CA0475846294600BDC04691B2008072
:20A8000000B502D1024FB8470746287800BDC04649D501800690342002490BFB00108068DE
:20A820007047C0465C5100806168034800EBC10001793C227047C0463C62008070B5034C47
:20A840000546A04700F08AFA70BDC0461DDF008010B5034901EB40110C69A04710BDC04626
:20A86000184A00803E2140F23802CFF60602116021680A69002A7047002202E08254521CC8
:20A88000D2B20B689A42F9D30020704700B50028054618BF00BD014CA04700BDC5AB0080A5
:20A8A00000B558463946024E0122B04700BDC046719C008010B5034C002203210D20A0479E
:20A8C00010BDC04659B2008010B5024C0248A04710BDC046AD990080D41300200348016882
:20A8E00001F1010101604FF00100704720100020706A316A00680091F168B268019008F151
:20A9000004007047034B342200FB0232126A042A7047C0465C5100800499034B89790C22FA
:20A9200001FB02317047C046D064008010B501468868002808BF10BDCA689468A04710BDDD
:20A9400003480088D0F1010038BF00207047C0465810002010B5FFF7FBF80168062281F84E
:20A96000352AC469FFF71AFA10BD000010B5FFF7EFF801680F2281F8312AC469FFF70EFA39
:20A9800010BD000093F8311A082901D0092901D1012100E0002100297047000010B50146FF
:20A9A0008868002218B1CA685468A0470246104610BD0000017E407E4FF01A0240EA012099
:20A9C0004FF02A0100FB01207047000010B5FFF725F904D204F072F8DC6BA04710BD08200A
:20A9E00010BD000010B5FFF719F904D204F066F85C68A04710BD082010BD00008269022A11
:20AA00009CBF00F10C0343F822108169491C816170470000916A01B98368506998428EBF06
:20AA2000C01A0346002050617047000001704FEA112242704FEA114282704FEA1161C17082
:20AA40007047000040F8042B0122002302E040F8043B521C8A42FAD3704700000178427848
:20AA600062F31F218278C07841EA024141EA0060704700004FEA116202704FEA1142427003
:20AA80004FEA11228270C1707047000010B500F00DFC48F22033CEF6B853A0476FEA000016
:20AAA00010BD0000C1B2641A00FB096191F82610D4EB84040C4408EB8401704710B582B0F7
:20AAC00080B201910092024C6946A04702B010BD0570018010B5FEF7F1FE02D0024CA04717
:20AAE00010BD002010BDC046E9FB0080022102E0491C89B2C01F0728FADA002818BF491C47
:20AB000088B27047044A302109FB0121DBF8000091F823107047C046245500800448006886
:20AB2000006CC0F38230002818BF01207047C046C413002010B5034C034801220021A047E6
:20AB400010BDC046A9990180AE69002010B500F04DF903D0024C0B22FEF710FF012010BDED
:20AB6000D1BF008010B500F041F903D0024C0722FEF704FF012010BDD1BF008010B942F299
:20AB80000300704701607F21818082600021C16008467047012205E003680BB1002203E09C
:20ABA000001D491E0029F7D11046704700B508BF00BD002630462146014FB84700BDC046C5
:20ABC0009D9E008010B5034CA047034CA0470028F9D110BDD1DA00807DB7008040F2102089
:20ABE000CEF60040008810F00400D0F1010038BF0020704710B5044B03EB40135C680846CE
:20AC00001146A04710BDC046184A008001608280C2804FF0000101810182C1744FF00101E1
:20AC20004175704704494218405C0228D8BF7047401E10707047C046E011002010B5034C2C
:20AC400080B2A047024CA04710BDC0463DA8008059DB008010B5024C02490348A04710BD5D
:20AC6000A1990080E80F0020D413002030B50546034C0321A047FFF751FA002030BDC0461E
:20AC80006DC900800096044841463A462B4600880190D9F8100070478696008004489DF876
:20ACA0002820001D10F80910114300F8091070471014002010B5034CA047034900200870CF
:20ACC00010BDC04635AB0080AD69002000B55FEA93085E1E024C0022A047C345DA4600BDBA
:20ACE00045AA008030B50024034D2046A847641C022CF9D330BDC04601120180044942188F
:20AD0000405C012818BF7047022010707047C046E0110020044B0C46142100FB0131012646
:20AD20005FF400557047C04650560080C16851F00401C1602A78016846F82210D4F8F419A4
:20AD40000160704730B50446E568237E2D68084611462246A8470020207630BD00B5064689
:20AD600018B92846024C0021A047304600BDC04605D30080FF2229B9034A302100FB0120F0
:20AD800090F829201046704724550080002229B9034A302100FB012090F82C20104670473D
:20ADA0002455008010B5034CA0470349042081F8440010BDFD2B0180C413002010B54DF8FB
:20ADC000082D002301931A46014CA04702B010BD195001800128C8BF7047034909680968F5
:20ADE00081F83B007047C0460410002000B5FF23FFF7D4F901D1002302E0212828BF0423E6
:20AE0000FF2B00BD10B54DF8041D0146024C6A460920A04701B010BDB110018000B5034D06
:20AE2000A847034802250178357000BD4D9C0080BA690020044A01218318805C022804BF56
:20AE40001970002108467047E011002030B5FFF7B5F9034CA0470546FEF7C8FE284630BD12
:20AE60005DB1008030B5FFF7A9F9034CA0470546FEF7BCFE284630BD35AE0080BDF8041010
:20AE800003483246014448463B4600947047C0463856002000B5044FB847C5F3C5013144A2
:20AEA000401A5FEAC00100BD9DE700800448006800684FF00001C0F85C16C0F86016704702
:20AEC0000010002010B54DF8082D0193024C03230022A04702B010BDAD84018000B580F894
:20AEE000341005624662024CA047804600BDC046E900018000B512EA030E23689E4518BFD0
:20AF000000BD11464FF2050262F31F4100BD000048B92168022906D1BDF800105FEA112296
:20AF20003270717070470120704700004FF06840026A0A60426A4A60826A8A60C06AC860C4
:20AF40004FF0000070470000017842784FEA016141EA02418278C07841EA022141EA000014
:20AF6000704700004FF0000040F24001CFF2040108604AF20401CEF2080108607047000011
:20AF800095F8430A022485F85000D5F8FC092863D5F8000A686300207047000080880022E4
:20AFA00010F4FC538B4202D110F4804F01D142F2010210467047000005480168C98EA0F810
:20AFC000421090F8461001F0BF0180F846107047C413002010B50448044AC1691160816930
:20AFE000FFF7F4F810BDC046C4510080E00F002010B582B0044C01AA6946A04708B1002097
:20B0000000E0019802B010BDBDAD008010B582B0044C01AA6946A04708B1002000E0009875
:20B0200002B010BDBDAD008010B54BF6EF64CDF6AD644DF8044D024CA04701B010BDC0462B
